:020000040800F2
:10000000300700204501000863270008D51F0008BD
:1000100061270008A30A0008012E00080000000064
:10002000000000000000000000000000A127000800
:10003000A50A0008000000006527000851280008F4
:100040005F0100085F0100085F0100085F01000810
:100050005F0100085F0100085F0100085F01000800
:100060005F0100085F0100085F0100085F010008F0
:100070005F0100085F0100085F0100085F010008E0
:100080005F0100085F0100085F0100085F010008D0
:100090005F0100085F0100085F0100085F010008C0
:1000A0005F0100085F0100085F0100085F010008B0
:1000B0005F0100085F0100085F0100085F010008A0
:1000C0005F0100085F0100085F0100085F01000890
:1000D0005F0100085F010008F52D00085F010008BE
:1000E000A70A00085F0100085F0100085F0100081F
:1000F0005F0100085F0100085F0100085F01000860
:100100005F0100085F0100085F0100085F0100084F
:100110005F0100085F0100085F0100085F0100083F
:100120005F0100085F0100085F0100085F0100082F
:10013000DFF80CD000F052FC004800479144000862
:10014000300700200648804706480047FEE7FEE7E4
:10015000FEE7FEE7FEE7FEE7FEE7FEE7FEE7FEE777
:10016000A528000831010008202A04DB203A21FAE2
:1001700002F00021704721FA02F3D040C2F12002C0
:100180009140084319467047D2B201E000F8012BB4
:10019000491EFBD270470022F6E710B513460A4607
:1001A00004461946FFF7F0FF204610BD30B504465F
:1001B0000020034600E05B1C934203D2E05CCD5C70
:1001C000401BF8D030BDF0B480EA0102D40F4200E9
:1001D000B2EB410F02D20246084611464A0042D015
:1001E000C30DDDB2C1F3C752AD1A202D35DAC1F30C
:1001F000160141F4000204B15242C5F1200602FA90
:1002000006F12A411044B3EBD05F23D0C4B1012DD5
:10021000A0EBC35009DCF0BC4FF0004202EAC3522D
:10022000DBB200F5000000F0DEBA400000F18070A3
:1002300000EBC350A0F1807040EAD170490009E0A2
:10024000490841EAC071A0EBC35000F50000400826
:1002500000EBC350F0BC00F0BDBA6142012202EBDA
:100260004101001BF6E7F0BC704781F00041AAE7AE
:1002700080F00040A7E780EA010210B502F00043D9
:10028000400022D04A001FD0010E01EB1261C0F3E2
:100290005600C2F3560240F4000042F40002A0FBF4
:1002A000022000047F39140400D0401C50EA1240A0
:1002B00001D44000491EC2B20C0604EBD010401C11
:1002C0004008802A02D003E0002010BD20F0010089
:1002D000002900DA0020184310BD30B480EA010282
:1002E00002F0004530F0004221F0004013D090B100
:1002F000C30DD40DC2F31601C0F31600E41A41F485
:10030000000140F400027D34914201D3641C00E0FE
:100310004900002C02DA30BC002070474FF4000086
:100320000023914201D3891A034340084FEA410157
:10033000F7D151B1914202D14FF0004105E002D214
:100340004FF0010101E06FF0010103EBC4502844BC
:1003500030BC00F03FBA420005D0C0F3C752524251
:10036000914201DC0020704700EBC15070472DE93D
:10037000FE4F804681EA0300C00F0C46009021F03A
:10038000004123F00045B8EB0200A94105D24046E8
:10039000214690461C460B46024623F0004010437F
:1003A00047D0270DC7F30A00C3F30A510290401A41
:1003B000019040286BDAC3F3130040F4801B0098CF
:1003C000924620B10023D2EB030A63EB0B0B01989A
:1003D0005946C0F14002504600F0DBF906460D4692
:1003E00050465946019A00F0E3F910EB08006141CC
:1003F000002487EA115284EAE7731A4340D0009A36
:1004000062B3019A012A4FEA075215DC001B61EB27
:1004100002014FF0004202EA0752CDE90042001CFF
:1004200041F5801132462B4600F01AFA03B0BDE8C0
:10043000F08F40462146F9E7001B61EB0201001CEA
:1004400041F5801300185B412018A2F5001747EB17
:10045000030140EAD570B6196D4111E06D084FEA0D
:10046000360645EAC0754FEA0752001B61EB0201F0
:10047000001C41F5801149084FEA30000019514134
:1004800032462B4603B0BDE8F04F00F0DAB90098D1
:10049000012240000023D0EB020263EBE0730098DE
:1004A00021464FEAE074B8EB000061EB0401E9E794
:1004B00083F000435BE781F0004158E72DE9FE4FF0
:1004C00081EA030404F0004421F0004100944FF05D
:1004D000000B23F0004350EA01045ED052EA03040B
:1004E0005BD0C3F30A54C1F30A552C44A4F2F3348D
:1004F0000194A0FB0254C1F3130141F48011C3F332
:10050000130343F4801301FB024400FB034E840AEF
:10051000970A44EA815447EA8357A4FB0768029587
:100520008D0A05FB07854FEA932C04FB0C54270525
:10053000029D4FEA065847EA1637B5EB08056EEB01
:10054000070C870E920E47EA811742EA8312A7FB37
:100550000201B6EB0B0164EB00042B0D43EA0C33F4
:100560005E1844EB1C50DA465146E7FB0201C5F326
:1005700013044FEA0B3343EA14534FEA0432019C4D
:1005800043EA0603A4F10C040294009CCDE900B4F4
:1005900000F066F903B0BDE8F08F00200146F9E7EE
:1005A00070B521F0004303430CD0C1F30A55002479
:1005B000D5EB040564EB0403D617AD1AB34102DB97
:1005C0000020014670BD201841EB025170BDC10FE3
:1005D00080EAE0700844CA079623002100F003B9BE
:1005E00096230022114600F0FEB80EB5C10F80EA36
:1005F000E0700844CA07002140F233438DE80E0042
:100600000A460B4600F02CF903B000BD0EB540F2CF
:10061000334102910021CDE900110A460B4600F05A
:100620001FF903B000BD00F0004220F00040C10DF2
:10063000C0F3160040F400007F2901DA0020704763
:10064000962903DCC1F19601C84001E09639884043
:10065000002AF4D04042704720F00040C10DC0F3A2
:10066000160040F400007F2901DA00207047962927
:1006700003DCC1F19601C840704796398840704745
:1006800070B5C1F30A5201F000450024C1F3130113
:1006900040F2FF3341F480119A4201DA002070BD2C
:1006A00040F233439A42A2F2334203DC5242FFF754
:1006B0005BFD00E090402C43F1D0404270BD00F063
:1006C000004230F000400AD0C10D01F56071C0F366
:1006D000160042EA0151C20840071143704700204A
:1006E0000146704701F0004330B421F0004150EA68
:1006F000010206D00A0DA2F56072C1F31301002AAF
:1007000002DC30BC00207047440F44EAC104C10041
:10071000E01830BC00EBC25000F05CB8002801DBF0
:10072000C0F10040002901DBC1F10041884270475F
:100730002DE9F05F0546002092469B468846064616
:10074000814640241BE02846414647462246FFF7A3
:100750000BFD53465A46C01A914110D31146184614
:10076000224600F016F82D1A67EB01084F46224684
:100770000120002100F00DF817EB00094E41201E6A
:10078000A4F10104DFDC484631462A464346BDE871
:10079000F09F202A04DB203A00FA02F10020704783
:1007A0009140C2F1200320FA03F3194390407047AF
:1007B000202A06DBCB17203A41FA02F043EAE07325
:1007C00006E041FA02F3D040C2F120029140084312
:1007D000194670470029A8BF7047401C490008BF50
:1007E00020F00100704710B4B0FA80FC00FA0CF061
:1007F00050EA010404BF10BC704749B1CCF1200499
:1008000021FA04F411FA0CF118BF01212143084325
:10081000A3EB0C01CB1D4FEA00614FEA102042BF51
:10082000002010BC704700EBC35010440029A4BF47
:1008300010BC7047401C490008BF20F0010010BCEC
:10084000704710B5141E73F1000408DA401C41F122
:10085000000192185B411A4301D120F0010010BD44
:100860002DE9F04D92469B4611B1B1FA81F202E0BA
:10087000B0FA80F220329046FFF78BFF04460F4615
:1008800040EA0A0041EA0B0153465A46084313D096
:10089000114653EA010019D0C8F140025046FFF753
:1008A00063FC05460E46504659464246FFF771FF27
:1008B000084305D0012004E020463946BDE8F08D0C
:1008C0000020054346EAE0762C4337430A98630547
:1008D000E40AA0EB08000022FD0A44EA47540A306B
:1008E00002D500200146E9E7010510196941DDE95B
:1008F000084500196941BDE8F04DA2E72DE9F04D2A
:1009000081EA030404F0004B21F0004514464FF047
:10091000000A23F0004150EA050220D054EA010207
:100920001DD0C5F30A570246C5F31303C1F31300E4
:10093000C1F30A5640F4801543F48013A7EB060870
:10094000101BD64608F2FD3873EB050002D308F100
:10095000010801E092185B41B8F1000F03DA0020B2
:100960000146BDE8F08D00204FF480110646844614
:100970000EE0171B73EB050705D3121B63EB050392
:1009800006434CEA010C49084FEA300092185B41DB
:1009900050EA0107EDD152EA030012D082EA0400C6
:1009A00083EA0501084305D0101BAB4106D20122A2
:1009B000002306E000224FF0004302E06FF0010246
:1009C00053101AEB06004CEB085110EB0A0041EBF8
:1009D0000B01BDE8F04DFFF734BF0000064C074D9A
:1009E00006E0E06840F0010394E8070098471034FF
:1009F000AC42F6D3FFF7A0FBF860000818610008CE
:100A00002DE9F04D00231A461B1A8A4103DB002012
:100A10000146BDE8F08DC1F30A52C1F3130141F460
:100A200080154FF0000BD10702D100186D41521E06
:100A30000027044640F2FF11384601EB620A3E46A9
:100A40008046024600204FF48011FFF78DFBC2194B
:100A50007141BB1846EB0100B4EB030C75EB000CC5
:100A600004D3E41A65EB000517460E46241908F175
:100A700001006D4180463428E3DDF91946EB06009C
:100A8000091BA84103D24FF0FF32134601E00022B8
:100A900013461BEB070046EB0A51BDE8F04DFFF78C
:100AA000D0BEFEE770474FF4006000F05BB910B5B0
:100AB00000221146282000F0D3FABDE8104028207B
:100AC00000F0C0BA7047000010B51D481D4C016809
:100AD000608801290ED01C49096801290CD01B48E7
:100AE000016820460129808809D01949096801292F
:100AF00007D00BE0401C00E0401E608003E0401E79
:100B000000E0401CA080032000F0BCF86288B32005
:100B10000121B32A01D3608002E0012A00D861805C
:100B2000A288B32A01D3A08002E0012A00D8A180C4
:100B3000608802F07FF9A088BDE8104001F014BE83
:100B40003400002078000020380000203C00002005
:100B5000400000202DE9F05F90F8211000240229C8
:100B600003D004218163012485E001680A6822F032
:100B70000E020A6001680A6822F001020A603F4E14
:100B80003E4FB215DFF8F4C0DFF8F090DFF8ECA0CC
:100B9000DFF8E8B0DFF8E4E00168783F1301150200
:100BA000ACF1640CA9F15009AAF13C0AABF1280B95
:100BB000AEF1140E4FF48018B14227D9B9420ED0CD
:100BC000614512D049451DD0514518D0594518D01E
:100BD000714501D1424615E0294EB14201D10122B1
:100BE00010E0274E1436B14201D110220AE0244E03
:100BF0002836B14206D0224A3C32914201D11A46EF
:100C000000E02A461E49091F0A602BE0B94213D0B2
:100C1000614517D0494522D051451DD059451DD0B9
:100C2000714501D142461AE0B14202D14FF08072C3
:100C300015E0134EB14201D1012210E0104E1436DE
:100C4000B14201D110220AE00D4E2836B14206D041
:100C50000B4A3C32914201D11A4600E02A4607492C
:100C600080394A60012180F82110002180F820108D
:100C7000416B01B188472046BDE8F09F80000240EB
:100C80000804024070B5044600F07EF90546601C79
:100C900002D004480078044400F076F9401BA042DA
:100CA000FAD370BD8000002070B503F0C1FB03F0E3
:100CB00043F8294A911E881E01F0AAFA4FF080419C
:100CC000486A254C00B2241F20670020486223494F
:100CD0000A6812B2524262670860B4F90000FFF776
:100CE00076FC1F4D0246A168286802F0C7FE6066C8
:100CF000D4E91C0104F0B4FAA066E06A012820D00F
:100D0000206B01281DD0B4F90400FFF76EFC4FF0F2
:100D1000FF32FFF745FCFFF7B3FCE066D4E91901A9
:100D2000411AE06E0A1A0844C4E9072002F06AF882
:100D3000286801F027FFD4E90701BDE8704001F001
:100D400045BDB4F90400FFF742FC0246D4E91C019A
:100D500004F040FAE1E7000004000020240800400D
:100D6000D8000020044910B50A68024202D0086089
:100D7000FFF79AFF10BD0000140401402DE9F84F61
:100D8000DFF8C891002409F1040A0AF1040B234694
:100D90000F270BF1040ED1E00125A54006EA05025C
:100DA000AA4276D1DFF8A8C14E68A6EB0C086645CA
:100DB0002BD00DDC032E34D005DC36B3012E19D038
:100DC000022E2FD11BE0112E16D0122E2AD119E09F
:100DD000B8F5881F19D006DCB8F5803F15D0B8F5F6
:100DE000801F1FD111E0B8F5001F0ED0B8F5041F09
:100DF00018D10AE0CB6815E0CB681B1D12E0CB6868
:100E000008330FE0CB680C330CE08B682BB1012B5F
:100E10004FF0080303D0456104E0042302E00561BC
:100E200000E00023FF2A01D8064601E000F1040695
:100E30004FEA840501D9A5F12005D6F8008007FA0C
:100E400005FC28EA0C0803FA05F548EA0508C6F887
:100E500000804D68ED0070D53E4DAE6946F001064C
:100E6000AE61AD6924F0030605F0010500953A4D29
:100E700006EB050CDCF80850A607360F07FA06F853
:100E800025EA0805DFF8D480404503D14FF000087B
:100E900025E052E0DFF8C880404502D14FF001085C
:100EA0001DE0DFF8C080404502D14FF0020816E097
:100EB000DFF8B480404502D14FF003080FE0DFF8BF
:100EC000AC80404502D14FF0040808E0DFF8A08074
:100ED000404502D14FF0050801E04FF0060808FA3E
:100EE00006F848EA0508CCF808804D68D9F8006093
:100EF000ED034D4601D5164300E096432E604D6844
:100F0000DAF80060AD03554601D5164300E096437C
:100F10002E604D68DBF80060ED025D4601D516439A
:100F200000E096432E604D68DEF80060AD02754625
:100F300001D5164300E096432E60641C0A681646ED
:100F4000E2407FF429AFBDE8F88F000000040140C3
:100F50000000111000100240000001400008014094
:100F6000000C014000100140001401400018014035
:100F7000001C01408068084000D0012070470AB181
:100F8000016170470904FBE7014880687047000071
:100F90008000002002488168027811448160704717
:100FA00080000020074810B5016841F01001016081
:100FB000032000F075F8002000F006F800F024F897
:100FC000002010BD0020024070B50D4D04464FF4C6
:100FD0007A712878B1FBF0F00A490968B1FBF0F0AA
:100FE00000F0ECFA48B9102C07D200222146501E1E
:100FF00000F036F800206C6070BD012070BD00006C
:10100000800000208C0000200C4808B5816941F068
:1010100001018161816901F001010091C16941F023
:101020008051C161C06900F080500090044841685F
:1010300021F0E06141F08061416008BD0010024094
:1010400000000140002809DB00F01F02012191404F
:101050004009800000F1E020C0F800117047000056
:10106000F0B40E4B1B680C46C3F30223C3F1070513
:10107000042D00D90425191D072901D2002300E001
:10108000DB1E012606FA05F1491E214099409E40CB
:10109000761E16403143F0BC01F028BF0CED00E095
:1010A000064900F0070208684FF6FF03184040EABF
:1010B0000220034A10430860704700000CED00E076
:1010C0000000FA052DE9F0470F46050061D0434EB8
:1010D000306800F00700B84209D2306820F00700FD
:1010E00038433060306800F00700B84251D12868BA
:1010F0003B4C810712D5400703D5606840F4E0609F
:1011000060602878000703D5606840F46050606034
:101110006068A96820F0F000084360602878C00784
:1011200028D06868012810D02168022810D08907CB
:1011300000292EDA616821F0030101436160FFF7A5
:1011400023FF804641F288390DE021688903EFE7EB
:101150008901EDE7FFF718FFA0EB0801494502D927
:101160000320BDE8F0876068696800F00C00B0EB10
:10117000810FEFD1306800F00700B8420BD930681A
:1011800020F0070038433060306800F00700B842B4
:1011900001D00120E5E72878400705D56068E968B7
:1011A00020F4E060084360602878000706D5606896
:1011B000296920F4605040EAC100606000F038F80E
:1011C0006168084AC1F30311515CC84006490860D0
:1011D00006480068FFF7F8FE0020C2E70020024042
:1011E00000100240545300088C00002084000020AE
:1011F0000448054900684968044AC1F30221515C6A
:10120000C84070478C000020001002406453000862
:101210000448054900684968044AC1F3C221515C89
:10122000C84070478C000020001002406453000842
:1012300012A185B00FC98DE80F0014A0144A0068F0
:1012400004905168134801F00C03042B10D0082BB4
:101250000ED1C1F38343C9031DF803000AD55168B9
:1012600004AAC1F34041515C0A4A5043B0FBF1F07B
:1012700005B0704708494843FAE700000203040537
:10128000060708090A0B0C0D0E0F101001020000D2
:101290000010024000127A0000093D002DE9F84FCD
:1012A000040070D02078C04DC00749D06868C0F3F2
:1012B0008100012807D06868C0F38100022809D1A5
:1012C0006868C00306D52868800339D5606800289F
:1012D000E7D035E06068B0F5803F0BD010B1B0F5D5
:1012E000A02F11D0286820F480302860286820F4CE
:1012F000802002E0286840F480302860606890B167
:10130000FFF742FE06460AE0286840F48020286085
:10131000F0E700BFFFF738FE801B642873D8286809
:101320008003F7D50CE0FFF72FFE064605E000BF6F
:10133000FFF72AFE801B6428F0D828688003F7D4C2
:1013400020789A4E80074FF001094FF0000839D5F8
:10135000686810F00C0F07D06868C0F3810002289D
:1013600009D16868C00306D42868800714D52069AD
:10137000012808D110E02069B0B1C6F80090FFF74D
:1013800003FE074605E00AE1FFF7FEFDC01B022849
:10139000C4D828688007F7D52868616920F0F8006C
:1013A00040EAC10028600DE0C6F80080FFF7ECFDC0
:1013B000074604E0FFF7E8FDC01B022823D8286891
:1013C0008007F7D4207800072CD57948A169D9B1D6
:1013D000C0F80090FFF7D8FD074604E0FFF7D4FD02
:1013E000C01B02280FD8686A8007F7D571484FF4F0
:1013F000FA510068B0FBF1F0009000BF0098411E68
:101400000091FAD20EE080E0C0F80080FFF7BCFD4A
:10141000074604E0FFF7B8FDC01B022875D8686ACC
:101420008007F7D42078400760D5E8690027C0001E
:1014300008D4E86940F08050E861E869012700F0CD
:10144000805000905C480168C90513D40168834648
:1014500041F480710160FFF797FD824606E000BF0E
:10146000FFF792FDA0EB0A0064284ED8DBF80000DD
:10147000C005F5D5E06801280AD008B1052813D0C9
:10148000286A20F001002862286A20F0040002E0A7
:10149000286A40F001002862E06841F2883B98B178
:1014A000FFF772FD82460BE0286A40F004002862D4
:1014B000EEE700BFFFF768FDA0EB0A0159455AD8D7
:1014C000286A8007F6D50CE0FFF75EFD824605E04E
:1014D000FFF75AFDA0EB0A0159454CD8286A80074E
:1014E000F6D41FB1E86920F08050E861E06988B364
:1014F0006968C1F38101022944D00228C6F86080DE
:1015000004D0FFF741FD044638E034E0FFF73CFD2E
:10151000074604E0FFF738FDC01B02282BD82868D7
:101520008001F7D4206AB0F5803F05D16868A168D2
:1015300020F4003008436860D4E908010843696872
:1015400021F4741108436860C6F86090FFF71CFD31
:10155000044606E025E000BFFFF716FD001B022849
:1015600009D828688001F7D51BE000BFFFF70CFD04
:10157000001B022802D90320BDE8F88F28688001EB
:10158000F4D40EE00128F7D06868226A00F48031B4
:10159000914204D1616A00F47010884201D00120A8
:1015A000EAE70020E8E700000010024000004242A5
:1015B000800442428C0000200070004010B5401EA4
:1015C000B0F1807F01D3012010BD4FF0E0246061B5
:1015D0000F21601701F08AFC0020A0610720206124
:1015E000002010BD10B590F83C20012A22D0012225
:1015F00080F83C20CA688C6822F4407222434C6810
:1016000022F4806222430C6822F4006222430C69B7
:1016100022F4805222434C6922F400522243C969C9
:10162000002322F480420A4301684A6480F83C3077
:10163000002010BD022010BD70B590F83C20012A9A
:1016400019D0012400F83C4F0222427050F83C3C73
:101650005A689D6822F070060A684968324325F08E
:10166000800529435A6050F83C2C91604470002159
:101670000170084670BD022070BD10B5040003D093
:1016800094F83D0010B107E0012010BD002084F85F
:101690003C00204600F00CF8022084F83D00211D9B
:1016A000206801F023F9012084F83D00002010BDDE
:1016B00008B5174A01681748914207D1816941F47A
:1016C00000618161806900F4006009E0124A914282
:1016D00008D1C16941F00201C161C06900F0020096
:1016E000009008BD0D4A914207D1C16941F008013F
:1016F000C161C06900F00800F2E7094A9142F0D1E7
:10170000816941F400518161806900F40050E7E78C
:10171000002C01400010024000040040000C00407A
:101720000034014070B5044690F83C00012817D001
:10173000012584F83C50022084F83D00206882682E
:1017400022F0770222F47F4282600868502830D06D
:101750000DDC20284DD005DC98B310283BD148E0A3
:10176000022070BD302844D0402834D139E06028B0
:1017700028D0702806D0B0F5805F2CD0B0F5005F7F
:1017800029D10AE0CB68D1E90121206801F001F9F3
:101790002068816841F0770109E0CB68D1E9012137
:1017A000206801F0F6F82068816841F4804181608A
:1017B00011E0CA684968206801F0C0F9502120682A
:1017C00007E016E0CA684968206801F0C8F960219E
:1017D000206801F0E8F884F83D50002084F83C00CF
:1017E00070BDCA684968206801F0A8F940212068E6
:1017F000EFE7226801461046EBE72DE9F0410D4680
:10180000040003D094F83D0018B108E00120BDE8C1
:10181000F081002084F83C00204600F03BF80220D4
:1018200084F83D002068816844F20702914381609A
:10183000211D206801F05AF8226890689169166AA3
:101840002B68AF69034340F20330814341EA07212B
:10185000A868EF6908434FF6FC418843E96840EA0D
:101860000720014328692F6A000140EA0730084336
:1018700069686D6926F0220646EA051529439360DA
:101880002268906120680162012084F83D000020F8
:10189000BDE7000030B585B00025009501950295A3
:1018A000039501682B482C4CB1F1804F21D02B4A75
:1018B00091421CD1C16941F00401C161C16901F0CB
:1018C00004010491816941F02001816180696946C8
:1018D00000F0200004904FF4405000902048FFF7A3
:1018E0004DFA606840F0E06040F48050606005B000
:1018F00030BDC16941F00101C161C16901F001015F
:101900000491816941F004018161816901F0040160
:101910000491816941F0080181618069694600F0A4
:10192000080004904FF4004000900E48FFF726FA9C
:101930000820CDE900050120029069460A48FFF71A
:101940001DFA606820F4407040F0E06040F4807060
:10195000CCE70000001002400000014000080040F9
:101960000014014000080140000C014010B504467D
:10197000006891B1042904D00122002100F0FCFF8D
:10198000206801225FF0040100F0F6FF2068016882
:1019900041F001010160002010BD01220021F3E7A8
:1019A00010B586B000210091019102910391234C62
:1019B0000368234902222348A34209D18B6943F0DB
:1019C00004038B61896901F00401049181150BE026
:1019D0001D4CA34210D18B6943F004038B618969CC
:1019E00001F0040104914021CDE9001203926946FF
:1019F000FFF7C4F906B010BD144CA3420BD18B699C
:101A000043F004038B618969009201F004010192A3
:101A1000CDE90321EBE70E488342EBD1886940F022
:101A2000100088618869694600F0100004908020E9
:101A3000CDE9000207480392DAE70000002C0140DC
:101A4000001002400008014000040040000C00406B
:101A5000003401400010014070B5044690F83C008D
:101A60000D4601280DD0012684F83C60022084F840
:101A70003D0042B1042A18D0082A2AD00C2A4DD1A0
:101A800039E0022070BD206800F096FF206881696F
:101A900041F0080181612068816921F004018161C0
:101AA000206881692A69114311E0206800F0B4FFC1
:101AB0002068816941F4006181612068816921F4B5
:101AC00080618161206881692A6941EA022181611E
:101AD00024E0206800F0D6FF2068C16941F00801C9
:101AE000C1612068C16921F00401C1612068C16938
:101AF0002A69114311E0206800F0F8FF2068C169ED
:101B000041F40061C1612068C16921F48061C16153
:101B10002068C1692A6941EA0221C16184F83D60F7
:101B2000002084F83C0070BD10B5040003D094F888
:101B30003D0010B107E0012010BD002084F83C00FA
:101B4000204600F00CF8022084F83D00211D20689A
:101B500000F0CCFE012084F83D00002010BD70474D
:101B600010B504460068012200F006FF0B4920680A
:101B7000884202D00A49884203D1416C41F40041B5
:101B800041642068816801F00701062903D00168DB
:101B900041F001010160002010BD0000002C014057
:101BA000003401407047000070B5026804461068B8
:101BB000D168536910F00F0F51D003F0010501F403
:101BC000907635435DD0C20705D0CA0503D5E26BD8
:101BD00042F00102E263420705D5DA0703D0E26B67
:101BE00042F00202E263820705D5DA0703D0E26B16
:101BF00042F00402E263020705D5DA0703D0E26B84
:101C000042F00802E263E26B002A34D0800604D579
:101C1000880602D5204600F0E1FF20684069E16BAC
:101C2000C0F3801001F008010143204624D000F0E9
:101C3000C7FF2068416949061AD5416921F0400172
:101C40004161606BA0B11B494163606BFEF782FF8D
:101C5000002810D0606B416BBDE8704008478306D8
:101C60000FD58B060DD52046BDE8704000F0B6BFFD
:101C70002046FFF797FF70BDFFF794FF0020E06359
:101C800070BD030606D50B0604D52046BDE870409E
:101C900001F04CB84006F3D54806F1D5D16820468E
:101CA00021F04001D160202184F8391000F091F931
:101CB00070BD0000B12B000870B5040004D094F88A
:101CC0003900002510B106E0012070BD84F83850BD
:101CD000204600F023F8242084F839002068C168E9
:101CE00021F40051C160204600F0C4FF2068016962
:101CF00021F4904101612068416921F02A0141618C
:101D00002068C16841F40051C160E563202084F877
:101D1000390084F83A00002070BD000070B586B02C
:101D2000002400940194029403942B4E03682B49E1
:101D3000022003222A4DB34221D18B6943F4804310
:101D40008B618B6903F4804304938B6943F0040334
:101D50008B618969039201F0040104910102CDE9CC
:101D6000001069462846FFF709F82815CDE9000458
:101D7000694628460294FFF701F806B070BD194E77
:101D8000B342FAD1CB6943F40033CB61CB6903F49E
:101D9000003304938B6943F004038B6189690392D8
:101DA00001F0040104910421CDE9001069462846A0
:101DB000FEF7E4FF0820CDE90004694628460294B6
:101DC000FEF7DCFF002211462620FFF749F9262006
:101DD000FFF738F9D1E70000003801400010024059
:101DE000000801400044004090F83A30202B22D1F6
:101DF000F9B1F2B190F83830012B1CD081628285A4
:101E0000C2850021C163222280F83A2080F8381070
:101E10000168CA6842F48072CA6001684A6942F087
:101E200001024A610068C16841F02001C1600020E0
:101E300070470120704702207047000070B52E489F
:101E40000123002204782D482D490A2C44D2DFE8D2
:101E500004F0050B12171B272B3037214A628A62C8
:101E6000CA620A63012202E0C1E9093205E00221E7
:101E7000FFF785F838E0C1E90923CA620A6307E081
:101E80004A62C1E90A23F9E74A628A62C1E90B237F
:101E90000022ECE74A638A63CA630A6401220DE008
:101EA0004A63C1E90E2307E04A638A63C1E90F234D
:101EB00003E0C1E90D32CA630A6400220121D7E7B9
:101EC000C1E90D23CA630A6400220121FFF757F814
:101ED0000CA000F0E7FF07E04A628A62CA620A6368
:101EE0004A638A63CA630A64BDE8704001220249FA
:101EF0000848FFF779BF000078000020000C01407F
:101F0000000000200D0A4650562052696768740D83
:101F10000A000000C00200202DE9F843044690F8B2
:101F200039001F4616460D46202850D1A5B19EB156
:101F300094F8380001284AD0012084F838004FF086
:101F40000008C4F83C80212084F83900FFF71CF811
:101F5000A6848146E68426E00120BDE8F883E08C73
:101F6000401EE084A0684B46B0F5805F4FF0000251
:101F70004FF080012046009703D000F008FFE8B939
:101F80000DE000F004FFC8B928882168C0F30800FC
:101F90004860206908B16D1C05E0AD1C03E02168B4
:101FA00015F8010B4860E08C0028D8D14B46002280
:101FB00040212046009700F0EAFE08B10320CCE75C
:101FC000202084F8390084F838800020C5E70220FA
:101FD000C3E77047FEE7000070B50A48402505607A
:101FE00002F02CFA074808380068000601D50024E2
:101FF00000E001240348001D056002F01FFA20469E
:1020000070BD0000100C01402DE9F0470024114F75
:10201000DFF8408082462546A8F10808402607F1EF
:1020200004093E6002F00AFA6006040ED8F80000C7
:10203000000601D544F00104C9F8006002F0FEF981
:102040006D1CEDB2082DECD3504600F039F8204657
:10205000BDE8F087100C01402DE9F0411D46144603
:102060000F46064600F04CF87006000E00F07AF8B5
:1020700001280ED1384600F075F8012809D100F08A
:102080003FF8012000EB4600C0B200F06BF80128D9
:102090000ED000F051F80120BDE8F081012C0DD0E8
:1020A0005FF00100FFF7B0FF641E05F8010BE4B21A
:1020B000002CF3D100F040F80020EDE70020F1E71C
:1020C0002DE9F0410D4E40240546346002F0B6F98A
:1020D00028468027351F01280DD02F6002F0AEF969
:1020E0002C6002F0ABF9346002F0A8F92F60BDE873
:1020F000F04102F0A3B93760F0E70000140C014092
:102100002DE9F04100F0B2FE0A4D40242C6002F0AF
:1021100095F92F1F80263E6002F090F93C6002F096
:102120008DF92E6002F08AF92C60BDE8F04102F0D2
:1021300085B90000140C014070B5094E402434608C
:1021400002F07CF98025356002F078F9361F3460A2
:1021500002F074F93560BDE8704002F06FB900001C
:10216000140C01402DE9F047154F002405464FF0AF
:1021700080094026A7F104083E6002F05FF92806B6
:10218000484602D5C8F8000000E0386002F056F971
:102190006806050E02F052F9C8F8006002F04EF928
:1021A000641CE4B2082CE7D33E6002F047F9C8F89B
:1021B000009002F043F9BDE8F047FFF70DBF0000C3
:1021C000140C01402DE9F0411E4615460C46074609
:1021D000FFF796FF7806000EFFF7C4FF01280ED127
:1021E0002046FFF7BFFF012809D1002405E0305D3C
:1021F000FFF7B8FF40B1641CE4B2AC42F7D3FFF77D
:102200009BFF0020BDE8F081FFF796FF0120F9E772
:102210007CB514460D4606466B46062243216820CF
:10222000FFF71AFFBDF8001049BA3180BDF802105F
:1022300049BA2980BDF8041049BA21807CBD00004C
:102240002DE9F04186B000243A48009401940294AC
:102250000394816941F010018161816901F01001ED
:102260000491816941F004018161816901F00401F7
:102270000491816941F008018161816901F00801DF
:102280000491816941F02001816180692A4F00F049
:1022900020000490002201213846FEF770FEDFF88E
:1022A0009C80002240F621714046FEF768FE012224
:1022B000C2214046FEF763FE0125022603960095E3
:1022C000CDE9015469463846FEF758FD1020CDE9A6
:1022D00000041B4F694638460294FEF74FFD232049
:1022E000CDE900050320CDE9024069464046FEF7EE
:1022F00045FD4FF47060CDE90005CDE90246694621
:102300004046FEF73BFDE80200900E48CDE901058E
:1023100069463846FEF732FDC020009001AA112020
:1023200082E8510069464046FEF728FD06B0BDE848
:10233000F08100000010024000100140000C01403C
:10234000000801400000111010B596B000240F9451
:1023500010941194129413941C2108A81494FDF75E
:102360001AFF20216846FDF716FF2948274901601A
:102370003F21C0E9011441F61F41C0E90314802147
:10238000C0E90541FFF779F908B1FEF79BFB4FF46F
:1023900080500F900FA91E48FFF7C4F908B1FEF74F
:1023A00091FB1B48FFF7C0FB08B1FEF78BFB1394B2
:1023B00013A917481494FFF73FF908B1FEF782FB01
:1023C0006020CDE908040A940B940C940D9400222B
:1023D00008A90F480E94FFF73FFB08B1FEF772FB08
:1023E00000944FF40050CDE904400294019403940A
:1023F000694607480794FFF7F5F808B1FEF762FB56
:102400000348FFF7CDFA16B010BD0000002C0140C4
:102410000001002010B58CB024216846FDF7BBFEFA
:102420000024164809944FF080410A94C0E9001432
:102430004FF6FF71C0E90241046184610320CDE9D8
:1024400000040120CDE902040A210491CDE90540F0
:10245000CDE9074169460948FFF7CFF908B1FEF712
:1024600031FB099409A905480A94FFF7E5F800280B
:1024700001D0FEF727FB0CB010BD0000400100208A
:1024800010B58EB000240794089409940A940B9414
:102490001C2168460C94FDF77EFE1F481D49016013
:1024A00041F61F41C0E90114C721C0E9031480218E
:1024B0008161FFF7E2F808B1FEF704FB4FF48050AA
:1024C000079007A91448FFF72DF908B1FEF7FAFAAB
:1024D0001148FFF729FB08B1FEF7F4FA0B940BA99A
:1024E0000D480C94FFF7A8F808B1FEF7EBFA60204E
:1024F000CDE9000402940022694607480494FFF7DE
:10250000ABFA08B1FEF7DEFA0348FFF749FA0EB05E
:1025100010BD0000000400408001002010B58CB008
:1025200024216846FDF737FE002416480994144913
:102530000A94C0E900144FF6FF71C0E9024104613A
:1025400084610320CDE900040120CDE902040A21C1
:102550000491CDE90540CDE9074169460948FFF7F7
:102560004CF908B1FEF7AEFA099409A905480A9496
:10257000FFF762F8002801D0FEF7A4FA0CB010BDF6
:1025800000080040C001002010B58EB00024079460
:10259000089409940A940B941C2168460C94FDF746
:1025A000FAFD1F481D49016041F61F41C0E90114B1
:1025B000C721C0E9031480218161FFF75EF808B1EB
:1025C000FEF780FA4FF48050079007A91448FFF7F0
:1025D000A9F808B1FEF776FA1148FFF7A5FA08B195
:1025E000FEF770FA0B940BA90D480C94FFF724F832
:1025F00008B1FEF767FA6020CDE9000402940422D6
:10260000694607480494FFF727FA08B1FEF75AFA1B
:102610000348FFF7C5F90EB010BD0000000C0040E4
:102620000002002010B596B000240F94109411946D
:10263000129413941C2108A81494FDF7ACFD2021DA
:102640006846FDF7A8FD2948274901603F21C0E9F8
:10265000011441F61F41C0E903148021C0E905417E
:10266000FFF70BF808B1FEF72DFA4FF480500F90EA
:102670000FA91E48FFF756F808B1FEF723FA1B48CA
:10268000FFF752FA08B1FEF71DFA139413A9174881
:102690001494FEF7D1FF08B1FEF714FA6020CDE9DB
:1026A00008040A940B940C940D94042208A90F4872
:1026B0000E94FFF7D1F908B1FEF704FA00944FF435
:1026C0000050CDE904400294019403946946074800
:1026D0000794FEF787FF08B1FEF7F4F90348FFF708
:1026E0005FF916B010BD0000003401404002002028
:1026F0000C4810B50A4901604FF4E13141600021F6
:1027000081600C22C160C0E904128161C161FFF7E0
:10271000D3FA002803D0BDE81040FEF7D3B910BDAE
:1027200000380140800200200C4810B50A490160C1
:102730004FF4E1314160002181600C22C160C0E9A9
:1027400004128161C161FFF7B7FA002803D0BDE828
:102750001040FEF7B7B910BD00440040C002002091
:10276000FEE770477047000010B5FDF74FFF084ABD
:10277000084BFDF7A3FE0022074BFDF7F8FDFDF720
:10278000B1FFFDF769FF054980B20968886310BD94
:102790001CC7711CC771BC3F000014400002002020
:1027A00070470000012080F31388BFF34F8F054866
:1027B0000168054A01F4E06111430160BFF34F8FE6
:1027C00000BFFDE70CED00E00400FA052DE9F04143
:1027D0000D461C4C061E4FF480614FF4006705DD6A
:1027E00001222046FEF7CBFB002204E00022204617
:1027F000FEF7C5FB012239462046FEF7C0FB3046F6
:1028000002F092FC1049096848634FF480714E0051
:10281000002D05DA01222046FEF7B1FB002204E07C
:1028200000222046FEF7ABFB012231462046FEF790
:10283000A6FB284602F078FC044909688863BDE8D5
:10284000F0810000000C0140000100204002002047
:10285000FEF7A0BB30B58FB028216846FDF79BFC82
:1028600014210AA8FDF797FC01210804CDE9001006
:102870000024029402250491CDE907504FF4E010A2
:1028800009906846FEF70AFD0F20CDE90A056802A7
:10289000CDE90C4002210AA80E94FEF713FC0FB0FC
:1028A00030BD00000D48016841F001010160416840
:1028B0000B4A1140416001680A4A114001600168F9
:1028C00021F480210160416821F4FE0141604FF450
:1028D0001F0181600449C003086070470010024076
:1028E0000000FFF8FFFFF6FE08ED00E0F0B502681B
:1028F0001C4B1D4D1D4E1E4F1E4C4FF0804C9842E0
:1029000009D0A04207D0604505D0A84203D0B0420C
:1029100001D0B84204D122F0700E4A6842EA0E0299
:10292000984209D0A04207D0604505D0A84203D004
:10293000B04201D0B84203D122F44075CA682A439C
:102940004D6922F080022A4302608A68C2620A68E6
:102950008262984201D0A04201D10969016301213C
:102960004161F0BD002C014000040040000800401F
:10297000000C00400034014010B501F01F0301219C
:10298000046A99408C430462016A9A4011430162CF
:1029900010BD10B5846842EA032224F47F440A4340
:1029A0002243826010BD826822F070020A4342F026
:1029B0000701816070470000F0B5026A22F0010251
:1029C0000262036A42688469124E24F073050C683F
:1029D0002C4323F002058B682B430D4DA84201D0F8
:1029E000B04205D123F00807CB683B4323F0040332
:1029F000A84201D0B04205D14D6922F4407215437E
:102A00008A692A4342608461496841630362F0BD78
:102A1000002C014000340140F0B5026A22F010029F
:102A20000262026A436884690D6824F4E64444EA59
:102A300005248D6822F0200242EA05120F4D104E47
:102A4000A84201D0B04206D1CF6822F0800242EA0B
:102A5000071222F04002A84201D0B04207D14D69CE
:102A600023F4406343EA85038D6943EA85034360A9
:102A70008461496881630262F0BD0000002C01405E
:102A800000340140F0B5026A22F480720262026AE8
:102A90004368C46922F4007224F073050C68124E76
:102AA0002C438D6842EA05220E4DA84201D0B04267
:102AB00006D1CF6822F4006242EA072222F4806243
:102AC000A84201D0B04207D14D6923F4405343EAF4
:102AD00005138D6943EA05134360C4614968C16306
:102AE0000262F0BD002C01400034014030B5026AA2
:102AF00022F480520262046A4268C3690D6823F4BA
:102B0000E64343EA05238D6824F4005444EA05347F
:102B1000084DA84202D0084DA84204D14D6922F4C4
:102B2000804242EA85124260C361496801640462DE
:102B300030BD0000002C01400034014010B5036A94
:102B4000046A24F001040462846924F0F00444EA75
:102B5000021423F00A020A438461026210BD10B518
:102B6000036A23F0100303628369046A23F4704349
:102B700043EA023224F0A00343EA011182610162B8
:102B800010BD00000749884202D80749884207DD86
:102B900006490020C861086248628862C86208630A
:102BA00070470000000034C20000344200000020E2
:102BB00010B5406A0021C185C184FEF7F3FF10BD46
:102BC0000168CA6822F49072CA6001684A6922F0FA
:102BD00001024A61202180F83A10704710B590F840
:102BE0003A10222901D0022010BD8168B1F5805F22
:102BF00011D00169002901681FD0496801F07F03E5
:102C0000816A4A1C82620B70C18D491E0904090C3D
:102C1000C18518D02BE00269816A002A02685268D7
:102C200005D0D2B20A80816A491C8162ECE7C2F306
:102C300008020A80816A891CF7E74A68816A4B1C8E
:102C400083620A70E0E70168CA6822F02002CA6065
:102C50000168CA6822F48072CA6001684A6922F079
:102C600001024A61202180F83A10FFF7E7F80020BE
:102C700010BD00002DE9F041044600680169E268DA
:102C800021F44051114301612169A0680843616941
:102C900008432168CA6841F20C639A430243CA6040
:102CA00020684169A26921F44071114341611E49C4
:102CB000206864253226884202D1FEF7A9FA01E095
:102CC000FEF796FA00EBC00101EB001160686FF0AF
:102CD00018078000B1FBF0F2B2FBF5F2B1FBF0F3A4
:102CE0007A4303EB8202B1FBF0F306EB0212B2FB74
:102CF000F5F2B3FBF5F302F0F00202EB0312B1FBC5
:102D0000F0F3B1FBF0F0B0FBF5F0784303EB80009B
:102D100006EB0010B0FBF5F0216800F00F00104446
:102D20008860BDE8F08100000038014090F839105B
:102D3000212901D0022070478168B1F5805F016AC6
:102D40000BD04A1C0262026809785160C18C491E8E
:102D50000904090CC1840ED017E009880268C1F388
:102D60000801516001690029016A02D0491C016211
:102D7000ECE7891CFBE70168CA6822F08002CA60A0
:102D80000068C16841F04001C160002070472DE932
:102D9000F041984617460E460446069D1DE0681C05
:102DA0001BD02DB1FEF7F0F8A0EB0800A84214D913
:102DB0002068C16821F4D071C1602068416921F0A8
:102DC00001014161202084F8390084F83A00002094
:102DD00084F838000320BDE8F0812068006836EAF6
:102DE000000004D00020B842D9D00020F3E7012031
:102DF000F9E700000148FEF7D7BE0000C00200203E
:102E0000FEE7000009490A4ACB695042934201DAC1
:102E1000CA6102E0834200DDC8610B6A934201DAB5
:102E20000A6270478342FCDD0862704700000020A0
:102E3000A8E4FFFF10B5FDF7E9FB084A084BFDF7D2
:102E40003DFB0022074BFDF792FAFDF74BFCFDF727
:102E500003FC054980B20968486310BD1CC7711C9A
:102E6000C771BC3F00001440800100202DE9F041F3
:102E70000B4E0B4D4024371F0C3D0BE0346001F02E
:102E8000DDFA01F0DBFA01F0D9FA3C6001F0D6FA84
:102E900001F0D4FA28680006F0D5BDE8F081000002
:102EA000140C01400FB4054B10B503A9044A029855
:102EB00000F0AAF810BC5DF814FB000011440008F3
:102EC000F8000020490050EAC12018BF04204A0D34
:102ED00018BF40F0010040F2FF72B2EB515F08BF33
:102EE00040F00200012808BF052070470907090EBD
:102EF000002804DB00F1E02080F80014704700F0A7
:102F00000F0000F1E02080F8141D70472DE9F0411A
:102F10004F1E00EBC7010446D1E9000115461E46CD
:102F200037F006020DD02A463346FDF7C7FA7F1E5A
:102F300004EBC703D3E90023FDF719FA37F00602C3
:102F4000F1D1022F25D0042F13D0062F18BFBDE8D2
:102F5000F0812A463346FDF7B1FAD4E90A23FDF79A
:102F600006FA2A463346FDF7A9FAD4E90823FDF705
:102F7000FEF92A463346FDF7A1FAD4E90623FDF708
:102F8000F6F92A463346FDF799FAD4E90423FDF70A
:102F9000EEF92A463346FDF791FAD4E90223FDF70C
:102FA000E6F92A463346FDF789FAD4E90023BDE85D
:102FB000F041FDF7DCB90122FDF7F2BAFDF7D7B910
:102FC0000022134610461146FDF798BC024A002025
:102FD0001107FDF7E5BA000001FDFFFF02E008C898
:102FE000121F08C1002AFAD170477047002001E083
:102FF00001C1121F002AFBD170470000014908607F
:1030000070470000FC0000202DE9FF4F8DB00F46F7
:103010000546002606E025280BD0DDE90F12904773
:103020006D1C761C28780028F5D111B03046BDE81B
:10303000F08F0024A246A1460122EC4900E004439F
:1030400015F8013F203B02FA03F00842F7D1287837
:103050002A2810D06FF02F022878A0F1300109291A
:1030600014D80AEB8A0102EB410144F0020400EBA0
:10307000010A6D1CF0E701CF5FEA000A03D544F4B2
:103080000054CAF1000A44F002046D1C28782E286E
:1030900017D115F8010F44F004042A280ED06FF060
:1030A0002F022878A0F1300109290AD809EB8901FB
:1030B00002EB410100EB01096D1CF2E757F8049B9C
:1030C0006D1C28786C280FD006DC4C2817D0682897
:1030D0000DD06A2814D104E0742810D07A280FD1BA
:1030E0000DE044F400140AE044F4801401E044F4D8
:1030F00040146978814202D104F580146D1C6D1C66
:103100002A786E2A1FD00CDC632A31D004DC002A16
:103110008BD0582A11D1A3E0642A68D0692A0CD137
:1031200065E0732A2ED004DC6F2A73D0702A04D194
:103130009BE0752A6FD0782A6ED01046DDE90F1219
:103140009047761C50E1C4F30250022806D00328B1
:1031500009D0042801CF09D0066045E101CFF1175D
:10316000C0E9006140E101CF06803DE106703BE12E
:1031700017F8040B8DF8000000208DF80100EB46D5
:10318000012003E057F804BB4FF0FF3061074FF018
:10319000000102D40DE008F10101884649450FDA2B
:1031A0008045F8DB1BF808100029F4D108E008F18D
:1031B000010188468142FADB1BF808100029F6D18C
:1031C000DDE90F23AAEB08008146214600F036F91D
:1031D000304400EB080604E0DDE90F121BF8010B98
:1031E0009047B8F10108F7D221464846F7E00A2196
:1031F000C4F302534FF0000B0891022B04D001CF0F
:10320000C117032B09D00AE0FF1D27F00707F7E8D5
:10321000020108E032E01FE020E000B2C117042BF9
:1032200001D140B2C117031E71F1000307DA4FF05C
:10323000000CD0EB0C006CEB01012D2302E0230508
:1032400004D52B238DF82430012303E0E30701D0BC
:103250002023F7E7984658E00A2110E010210EE0FD
:1032600010204FF0000B08900CE010214FF0000BE5
:1032700044F004044FF00809089103E008214FF0DE
:10328000000B0891C4F30253022B04D001CF00219C
:10329000032B06D006E0FF1D27F00707F7E8020121
:1032A00003E080B2042B00D1C0B24FF00008230726
:1032B0002BD5702A07D0DDF820C08CF0100C5CEA0A
:1032C0000B0C05D00EE040238DF82430012308E0DC
:1032D00050EA010306D030238DF824308DF82520E4
:1032E00002239846DDF820C08CF0080C5CEA0B0C39
:1032F0000BD150EA010301D1630706D530238DF8C5
:1033000024304FF00108A9F10109582A04D038A24D
:103310000B9208AA0A920BE03AA2F9E75B46089AD8
:10332000FDF706FA0B9B9B5C0A9A521E0A921370D9
:1033300050EA0102F2D10A98ADEB000000F1200B37
:10334000600702D524F4803401E04FF00109D9452B
:1033500002DDA9EB0B0000E0002000EB0B01414473
:103360000890AAEB010AE00306D4DDE90F23214609
:10337000504600F063F806444FF0000908E009A940
:1033800011F80900DDE90F12904709F10109761CD7
:10339000C145F4DBE0030CD5DDE90F23214650469F
:1033A00000F04CF8064404E0DDE90F1230209047AD
:1033B000761C0899481E08900029F5DC08E00A9858
:1033C0000A990078491C0A91DDE90F129047761C92
:1033D000BBF10001ABF1010BF1DC21465046DDE908
:1033E0000F2300F019F806446D1C1BE609280100A4
:1033F000303132333435363738396162636465666B
:10340000000000003031323334353637383941422C
:1034100043444546000000002DE9F04104460025E4
:103420001E461746880404D405E039462020B047DC
:103430006D1C641EF9D52846BDE8F0812DE9F041E8
:10344000044600251E469046C80301D5302700E0FB
:103450002027880404D505E041463846B0476D1C56
:10346000641EF9D52846BDE8F08100002DE9F04D35
:103470008D4F21F0004A86B005460C46BA452ADB3E
:10348000AAEB070028430AD08848824501DC1AD1FC
:10349000CDB106B02846BDE8F04DFFF78CBD844A9B
:1034A000844B2846FDF70AF807460E46824A834BAE
:1034B00028462146FDF702F806B03A463346BDE8F5
:1034C000F04DFCF754BF0120FFF798FD06B0BDE8B2
:1034D000F04DFFF775BD7A48824542DABAF1795F5F
:1034E0000BDA2846FFF7EEFC042808BFFFF76EFD55
:1034F000284606B02146BDE8F08D2A460B46104608
:10350000FCF7DCFF834602466E480E460B4606215A
:103510007844FFF7FBFC5A463346FCF7CFFF804662
:1035200069488A465A46334604217844FFF7EEFC40
:103530005A463346FCF7C2FF00223B46FCF717FF12
:1035400002460B4640465146FDF7D8F92A46234627
:10355000FCF7B4FF06B02A462346BDE8F04DFCF761
:1035600006BF284624F0004100223D463B46FCF7BA
:10357000A2FF4FF0FF32FDF713F80646024653480C
:103580000F460B4606217844FFF7C0FC32463B4607
:10359000FCF794FFCDE900014D4832463B4604213B
:1035A0007844FFF7B3FC32463B46FCF787FF002226
:1035B0002B46FCF7DCFE834602913046394601F08B
:1035C000E3FD804643480D46504517DCDDE9000128
:1035D0005A46029BFDF792F942462B46FCF76EFFD6
:1035E00042462B46FCF7C3FE0122FCF7D9FF304AC6
:1035F000304BFCF75DFF304A304B4CE04FF0000A97
:1036000052460B464046FCF7B2FECDE90310524647
:103610002B4610461946FCF751FF32463B46FCF755
:103620004AFFDDE90332FDF769F906460F46DDE999
:1036300000015A46029BFDF761F983460091012281
:1036400030463946FCF7ACFF194A1A4BFCF733FFFA
:1036500006460F46012240462946FCF7A1FF5A467E
:10366000009BFCF72BFF32463B46FCF721FF06464A
:103670000F46012250462946FCF792FF0E4DDFF817
:1036800058802A464346FCF716FF32463B46FCF775
:1036900012FF2A464346FCF70EFF002CD8BF81F0EC
:1036A000004106B0BDE8F08D0000F03F0000F07F63
:1036B000075C143326A6913C182D4454FB21F93F96
:1036C0000000E03FA42A0000BA2A00002E2A0000D1
:1036D000442A00003333EF3FFB21E93F2DE9F84F47
:1036E00004460D4621F0004000917349814211DCEF
:1036F0007249884201DC06D12CB120462946BDE83A
:10370000F84FFFF758BC6E48002DCCBF6D496E498D
:10371000BDE8F88F6D49814211DD6D498142D8BF06
:103720004FF0FF366DDD20462946FFF7CBFB04281E
:1037300008BFFFF74BFC20462946BDE8F88F6549D6
:10374000654F25F00045814233DD6449814219DD32
:10375000002632464FF0804320462946FCF707FEFC
:1037600080468A46012220462946FCF719FF00229E
:103770003B46FCF79DFE42465346FDF7BFF8044624
:103780000D463EE001260022BA463B462046294629
:10379000FCF7EDFD80460F460022534620462946A1
:1037A000FCF786FE42463B46FDF7A8F804460D4668
:1037B00027E04B4981421BDDDFF828A102260022C9
:1037C000534620462946FCF779FE00223B46FCF78B
:1037D000CEFD80460F460022534620462946FCF780
:1037E00067FE42463B46FDF789F804460D4608E071
:1037F000032622462B4600203B49FDF77FF804466E
:103800000D4622462B4610461946FCF757FE8B46BE
:10381000824602460B46FCF751FE074602463348F5
:1038200088460B4606217844FFF770FB52465B46FC
:10383000FCF744FE82462E488B463A464346052115
:103840007844FFF763FB3A464346FCF737FE0246EF
:103850000B46002E504659460CDAFCF788FD2246EE
:103860002B46FCF72BFE01B022462B46BDE8F04F5D
:10387000FCF721BEFCF77BFD22462B46FCF71EFE23
:103880001C4A7A4402EBC603D3E90023FCF710FE7E
:1038900022462B46FCF70CFE174A7A4402EBC6037D
:1038A000D3E90023FCF707FE009A002AB8BF81F095
:1038B0000041BDE8F88F0000000010440000F07FD8
:1038C000182D4454FB21F93FFB21F9BF0000DC3FD8
:1038D0000000203E0000F33F0000F03F0000E63F04
:1038E000008003400000F83F0000F0BF46280000C1
:1038F00004280000A22700006A2700002DE9F04DEF
:103900009446CCF1000423F000464CEA0404524FE4
:1039100046EAD4749A46884621F00042BC4206D852
:10392000454240EA050442EAD474BC4204D9BDE8E9
:10393000F04D6246FFF742BBAAF14055A5F17F6505
:1039400055EA0C040BD0022404EAAA74434DDFF8B4
:1039500010E144EAD87452EA000B04D00CE0BDE850
:10396000F04DFFF7BBBE002C14BF012CBDE8F08D5D
:10397000022C30D0032C32D056EA0C0B0AD0BE42B7
:1039800020D1BA4209D126F0804622F08042334647
:10399000114617E000291ADB25E0DFF8C8B0FB4428
:1039A000002C04BFDBE90001BDE8F08D012C02BF53
:1039B000DBE9000181F00041BDE8F08D022C0AD066
:1039C000032C0CD0BA4212D1B8F1000F0BDA234805
:1039D0002549BDE8F08D28462449BDE8F08D2846EC
:1039E0007146BDE8F08D1D482149BDE8F08D921B60
:1039F00012153C2AC4BF19481D490EDCBAF1000F4C
:103A0000BEBF12F13C0F0020014606DB6246FCF708
:103A100075FF21F00041FFF761FE002C08BFBDE8F3
:103A2000F08D012C04BF81F00041BDE8F08D114AFA
:103A3000114B022C07D0FCF73BFD2A46BDE8F04DA8
:103A40000A4BFCF735BDFCF733FD2A46BDE8F04DC7
:103A5000064BFCF730BD00000000F07F182D4454E9
:103A6000FB2109C0FE260000FB21F9BFFB21094014
:103A7000FB21F93F075C143326A6A13C70B5144620
:103A8000FCF7F3FB084E054621463069FCF7F3FBD3
:103A900004462946F068FCF7EEFB2146FCF793FB51
:103AA000BDE87040FCF7BFBD0000002008B560B164
:103AB00020208DF8000028208DF8010030208DF89E
:103AC000020038208DF8030004E0A3220421684698
:103AD000FCF75AFB6A46042140F69E2001F0FAFAF0
:103AE00001F030F808BD00003EB5044602208DF814
:103AF0000000CA208DF80100E3208DF802000920A3
:103B00008DF803006A460421682001F0E3FAA3203F
:103B10008DF80000610609D5C0218DF80110C8217B
:103B20008DF80210C2218DF8031005E08DF8010018
:103B30008DF802008DF8030014F4C07F09D0C42171
:103B40008DF80410CC218DF80510C6218DF80610D3
:103B500005E08DF804008DF805008DF806008DF85D
:103B600008008DF807008DF809006A460A2140F622
:103B7000A72001F0AFFAA0074FF0D80503D020200E
:103B80008DF8000001E08DF800506A46012140F6F2
:103B9000B62001F09FFAA00601D5012000E0002028
:103BA00000F08EF814F4C07F1ED0E0050AD5B220D4
:103BB0008DF800008B208DF80100B6208DF80200F2
:103BC0009B2009E0B0208DF8000080208DF80100D6
:103BD000B4208DF8020090208DF803006A4604217D
:103BE00040F6A22001F076FAE1074FF40B6022D0F4
:103BF000F8218DF800106A46012101F06BFAFA21D4
:103C0000072000F051FB072000F01CFB012000F012
:103C100039FB642000F0DCFB4FF4FA7000F0E8FBA5
:103C2000C821254800F0D6FA282000F0EBFA0A2037
:103C300000F0F8FA05E08DF800506A46012101F025
:103C400049FAA00703D5D9208DF8000001E08DF8CE
:103C500000506A46012140F23D7001F03BFA6007D6
:103C600001D5012000E0002000F048F8E00601D571
:103C7000012000E00020FFF719FF104D44F008007C
:103C8000688100F05FFF0020A873600601D5062060
:103C9000A87314F4C07F02D0A87B801DA87314F011
:103CA000140F02D0A87B1030A873A00702D0A87B05
:103CB000001DA87300203EBD09E3CA0200030020D6
:103CC0000EB54FF4976310B106A107C901E008A231
:103CD00007CA8DE807006A460921184601F0FAF97B
:103CE0000EBD0000B8AAB38DB4980D355D0000007C
:103CF000B8AAAAAAB088C3C5C700000008B560B1B9
:103D0000C0208DF80000C2208DF80100C4208DF87D
:103D10000200C6208DF8030004E08B2204216846CF
:103D2000FCF732FA6A46042140F6982001F0D2F9F5
:103D300000F008FF08BD00002DE9FC5F704DE87839
:103D400000287DD068780028FBD06E4C05F1100269
:103D5000A01CCDE9000400F1120300F1280122307B
:103D600000F0DEF800286BD1207808B90020E87058
:103D70006088C00564D5624D10352868FCF727FCC3
:103D80006FF01D094946FCF7E6FA06466060686870
:103D9000FCF71DFC4946FCF7DEFA8046A060A868E7
:103DA000FCF715FC4946FCF7D6FA0746E060E868E0
:103DB000FCF70DFC4946FCF7CEFA054620610121CF
:103DC0003046FCF7C8FA3946FCF755FA07464FF07B
:103DD000404631464046FCF74EFA2946FCF74BFA7E
:103DE0003946FCF7F0F9FCF76AFCFFF73FFBDFF818
:103DF00018914FF0663842464B46FCF75FFBFCF7E4
:103E000071FCA061E06801210546FCF7A4FA824636
:103E10002946FCF730FA0546A06831460646FCF70D
:103E20002AFA3146FCF727FA2946FCF71EFA4FF02A
:103E30007E51FCF7C8F9FCF742FC05460F4600E04E
:103E40005BE001216068FCF786FA3146FCF713FA63
:103E5000064650462169FCF70EFA3146FCF7B3F9E5
:103E6000FCF72DFC2A463B46FFF748FD42464B46F1
:103E7000FCF724FBFCF736FCE06121690191084660
:103E8000FCF7F9F9E168074608460091FCF7F3F9F9
:103E9000A16806468B465846FCF7EDF96168054671
:103EA0008A465046FCF7E7F92946FCF78CF931467B
:103EB000FCF7DBF93946FCF7D8F9FCF700FC0D46B6
:103EC000064650460199FCF7D6F907465846009930
:103ED000FCF7D1F93946FCF776F90121FCF73BFAFA
:103EE000FCF7EDFB32462B46FFF708FD42464B46FA
:103EF000FCF7E4FAFCF7F6FB20620120BDE8FC9F2A
:103F000010030020BC00002066A64C40C8234FF4DC
:103F10008062024940F6F63000F0F6BCBC5300085F
:103F20002DE9FF4F89B01746DDE9165200244C4EAB
:103F3000884681462C80A246B07B694600F090FD01
:103F40004FF0FF3B18B158460DB0BDE8F08F7089B7
:103F500010F0140F3CD0009909BA21F0FF039DF82E
:103F600003100B433B6001991B1409BA21F0FF02B7
:103F70009DF807105B430A437A6002999DF80B4055
:103F800009BA21F0FF012143B960039C091424BA46
:103F900024F0FF0C9DF80F4012144CEA040CC7F8F3
:103FA0000CC04FEA2C47494302FB023207FB0711C2
:103FB00011441024A1F17061B1F1007F04D900F027
:103FC000C1FDA5F800A0BEE7298841F480712980D1
:103FD0004206694611D50A19A41D13885BBAA8F8D0
:103FE000003053885BBAA8F80230928852BAA8F819
:103FF00004202A8842F008022A8010F4C07F11D0E1
:104000000A19A41D13885BBAA9F8003053885BBA5B
:10401000A9F80230928852BAA9F804202A8842F0FE
:1040200070022A80800716D00C44E07800F0C005AA
:1040300000F03F016078C00706D0C80801F0070112
:104040003268491C02B190476078000703D5716857
:1040500009B1A80988470C9800F0E8F9002073E737
:104060000003002030B5044613A285B007CA8DE8CE
:1040700007004FF0FF35C82C16D8C820B0FBF4F16C
:10408000491E080A8DF80C008DF80D1003AA0221B4
:1040900040F2162001F01EF830B96A460C2140F6B5
:1040A000C12001F017F810B1284605B030BD054811
:1040B00084810020F9E70000FEF2ABC4AAF1DFDF43
:1040C000BBAFDFDF000300202DE9FF4104463CA029
:1040D00004F00303006802903AA0006803903AA03D
:1040E00006683AA0056802A8C15C8DF80010C4F308
:1040F000C101425C8DF80120C4F38112805C8DF80F
:10410000020003A8C35C8DF80430415C8DF80510F3
:10411000805C8DF806006A46032140F2264000F0DC
:10412000D9FF4FF0FF37E0BB01AA032140F22A403C
:1041300000F0D0FFA8BBCDE9006560070BD59DF866
:10414000000040F001008DF800009DF8040040F0F0
:1041500001008DF80400A0060BD59DF8010040F089
:1041600001008DF801009DF8050040F001008DF878
:104170000500E0050BD59DF8020040F001008DF828
:1041800002009DF8060040F001008DF806006A4626
:1041900003214FF4886000F09DFF10B901AA0321AC
:1041A00000E004E040F2314000F094FF18B13846DE
:1041B00004B0BDE8F081064804810020F8E7000063
:1041C0004CCD6C000CC92C00365676002646660095
:1041D000000300204FF47A7290FBF2F008B54843D8
:1041E000010E8DF80010010C8DF80110010A8DF8F8
:1041F00002108DF803006A4604214FF4AE7000F0FF
:1042000069FF08BD0521B0FBF1F008B5010A8DF882
:1042100000108DF801006A4602214FF4AD7000F0E5
:1042200059FF08BD0521B0FBF1F008B5010A8DF872
:1042300000108DF801006A4602214FF4AC7000F0C6
:1042400049FF08BD08B500218DF80010C10702D054
:1042500030218DF80010810705D59DF8001041F040
:104260000C018DF80010400705D59DF8000040F0C6
:1042700003008DF800006A4601214FF4A47000F09D
:1042800029FF08BD08B560B1042800D90420401EEC
:104290008DF800006A46012140F24F1000F01AFF2D
:1042A00008BD0120F3E700002DE9FC410546400769
:1042B0004FF0FF367CD0B1F5C86F79D80846FCF7CF
:1042C0008FF93E49FCF709F8074601A800F030FADB
:1042D0009DF80400022806D004280DD008282ED00E
:1042E000102865D134E00E213846FCF734F8FCF78D
:1042F000B3F984B2324907E00D213846FCF72BF8B8
:10430000FCF7AAF92F4984B23846FBF7B4FFFCF753
:10431000A3F9210A8DF8001080B28DF80140010A3E
:104320008DF802108DF80300E8076C4620D0224675
:1043300002214FF4EA7000F0CDFEC8BB11E00C2161
:104340003846FCF708F8FCF787F984B21E49DBE72A
:104350000B213846FBF7FFFFFCF77EF984B21B49BF
:10436000D2E7A21C02214FF4927000F0B3FEF8B91C
:10437000A8070DD56A4602214FF4EC7000F0AAFEA2
:10438000B0B9A21C02214FF4947000F0A3FE78B9DA
:10439000680710D56A4602214FF4EE7000F09AFECD
:1043A00030B9A21C02214FF4967000F093FE10B1B8
:1043B0003046BDE8FC810020FBE7000000004843D8
:1043C000000040460000C045000040450000C044D9
:1043D0000521B0FBF1F008B5010A8DF800108DF849
:1043E00001006A4602214FF4EF7000F073FE08BD31
:1043F0000521B0FBF1F008B5010A8DF800108DF829
:1044000001006A4602214FF4ED7000F063FE08BD22
:1044100038B504468DF8000002230122694602489F
:10442000FDF77AFD204638BD80020020704700006D
:1044300001490120C8707047100300200020401C73
:10444000C0B20A28FBD3704790F90010002902DDA2
:104450004FF00000704702DA4FF00400704790F907
:104460000110002902DD4FF00100704702DA4FF021
:104470000500704790F90200002802DD4FF00200AD
:10448000704702DA4FF0060070474FF007007047A0
:1044900008B5FCF787FDFEF7DDF9FDF7D1FEFDF766
:1044A00053FFFEF7BFF8FEF723F9FDF7B3FFFEF762
:1044B00035F8FDF7E5FFFEF767F8FEF735F901225D
:1044C00011464348FCF75BFD424C01220221204685
:1044D000FCF755FD012211462046FCF750FD012254
:1044E00020212046FCF74BFD00213B48FDF738FB1F
:1044F00039480A250068456304213848FDF730FB38
:10450000364800688563002221152046FCF737FDF8
:104510000022E1142046FCF732FD0022A1152046BE
:10452000FCF72DFD002261152046FCF728FD3C21FB
:104530002B48FDF71BFA3C212A48FDF717FA00210A
:104540002948FDF70DFB0520FEF774FC04212748E0
:10455000FDF706FB0520FEF707F96B4601227521E2
:104560006820FDF779FD9DF8001021A0FEF79AFC68
:1045700000F08AF8FCF79BFA21A0FEF793FC0122D9
:1045800025492648FDF730FC254D264E264FDFF8FD
:104590009C80DFF89C902868012809D030680128A9
:1045A00006D03868012803D0D8F80000012801D1CE
:1045B000FCF78AFA10214846FCF7DCFC012805D0FC
:1045C000012220212046FCF7DAFCE4E70022F8E78C
:1045D00000100140000C01400001002040020020BA
:1045E00040010020C00100208001002000020020C6
:1045F0000D0A094944203D2025640D0A00000000F1
:104600000D0A6D707520696E69742073756363653A
:104610007373210D0A00000078000020C002002002
:1046200034000020380000203C0000204000002022
:10463000000801402DE9F041124C20F00101002555
:1046400094F8240010B10020BDE8F081A07A4FF06A
:10465000FF3668B10840277C2074884200D0354678
:1046600041B1012000F064FD00F06CFA38B127740C
:104670003046E9E7207D00B1012000F059FD2846D1
:10468000E2E700009000002070B500F06FF808B17C
:10469000FEF788F8782000F0C1FC08B1022070BD58
:1046A0007820FFF7C7FF08B1032070BD642000F039
:1046B00075FC08B1042070BD0E211B48FBF76BFD93
:1046C000194D032028700420A880FFF71FFC08B1B3
:1046D000052070BD15480446FFF7B6FE0646E01CEF
:1046E000FFF7B2FE46EAC006A01DFFF7ADFE46EAA0
:1046F000801080B2FFF7E8FC08B1062070BD40F2E0
:104700007310E880FFF7F0F908B1072070BD64204E
:10471000FFF7A8FC08B1082070BD012000F064FB81
:104720000120687070BD000010030020EC00002024
:104730000D494A7A42B1012A08D0022A0FD0032A31
:104740000FD04FF0FF307047022200E004220270C9
:10475000C97C11B11106C90D0170002070470822F3
:10476000F5E71022F3E70000900000202DE9FC415E
:104770004D4C80208DF8000020686B460122817C22
:1047800060680078FDF71EFD4FF0FF37002832D13A
:104790006420FCF777FA00258DF8005020686B46FE
:1047A0000122817C60680078FDF70CFD002870D143
:1047B00020686B460622817D60680078FDF74CFC1E
:1047C000002866D19DF805009DF80310C007400F32
:1047D00001F0010140EA41019DF801004FF001069E
:1047E00000F00100014309D0012905D0022915D0AC
:1047F0002EA0FEF757FB4CE0E67410E020686B46F5
:104800000122C17860680078FDF726FC40BB9DF866
:10481000000010F00F0020D0042822D0E574FF2003
:1048200004F80A0F4FF6FF7104F8020C04F8010CAB
:104830006070A180A0712072A67026766576E57200
:10484000A572E56025616561A576E576A5834FF4DF
:10485000FA6000F005FB18B907E01E48FEF722FBDE
:1048600017E01DA0FEF71EFBC6E7022000F01AFAB3
:1048700078B92A2000F05CFB58B9322000F08EFB9A
:1048800038B90020FFF7D6FE18B9002000F03EFA34
:1048900010B13846BDE8FC81002000F0BFFB16A037
:1048A000FEF700FB0020F5E790000020556E7375C1
:1048B00070706F7274656420736F6674776172656F
:1048C0002070726F64756374207265762025642E83
:1048D0000A000000A860000848616C662073656EDD
:1048E0007369746976697479207061727420666F77
:1048F000756E642E0A000000696E6974207375631A
:1049000063657373210000002DE9FF4FDFF8948089
:10491000064685B098F8250015460F464FF0FF393A
:10492000B0BBAFB3002420E0301B102800DD102006
:1049300080B283463A1901469246204600F0CAFBEF
:1049400030BB6A465946204600F0D2F800BB5046BC
:104950005A466946FBF72AFC20B16FF0010009B006
:10496000BDE8F08F04EB0B0084B2B442DCD3280A1C
:104970008DF810008DF81150D8F80000444604ABB3
:10498000817ED8F8040002220078FDF71BFC08B1F4
:104990004846E4E7012084F825000898E0840020D8
:1049A000DDE70000900000202DE9F84305464FF0B8
:1049B000FF39282844D80727284C00267DB101203C
:1049C00000F084FA20208DF800004FF00108012D3E
:1049D00017D0052D18D88DF8018005201FE0002084
:1049E00000F074FA8DF800608DF8017020686B4655
:1049F0000222817C60680078FDF7E4FB00BB26752D
:104A000029E08DF80160E8E7142D04D802208DF824
:104A100001000A2003E003208DF80100142000F0BB
:104A200087FA9DF801006B4607EB80108DF80100B6
:104A300020680222817C60680078FDF7C3FB10B11A
:104A40004846BDE8F8830820A072267384F81480D5
:104A50000020FFF7EFFD0020F3E7000090000020AA
:104A60002DE9F843214C0646174694F82400894660
:104A70004FF0FF3890B3A07A80B320686B460222D3
:104A8000817A60680078FDF7E7FA38BBBDF800006E
:104A900045BAB54202D2002038701FE060684188F4
:104AA000B5EB510F11D9216800786B46497C012282
:104AB000FDF7D2FA90B99DF80000C00605D500F0C8
:104AC00041F86FF00100BDE8F8832068F2B24B4670
:104AD000C17A60680078FDF7BFFA08B14046F2E796
:104AE000B5FBF6F0401E38700020ECE79000002087
:104AF000F8B516000D464FF0FF371FD0104CA17AC5
:104B0000E1B1010A8DF80010C0B28DF80100411921
:104B100060684289914211D8216800786B46097E0D
:104B20000222FDF74FFB48B92068EAB23346417DC7
:104B300060680078FDF790FA002800D03846F8BD8C
:104B400090000020F8B5564C4FF0FF36A07A0028B0
:104B50007DD000258DF8005020686B460122C17B76
:104B600060680078FDF72EFB002870D120686B4646
:104B70000122417960680078FDF724FB002866D1A6
:104B800020686B460122017960680078FDF71AFB06
:104B900000285CD194F82400E0B30C208DF80000CC
:104BA00020686B460122017960680078FDF70AFBF6
:104BB000002872D13220FCF765F8C0208DF8000083
:104BC000A07AC00702D0E0208DF8000020686B4674
:104BD0000122017960680078FDF7F4FA00285CD1C1
:104BE000607C18B102208DF8000001E08DF80050C3
:104BF00020686B460122C17B60680078FDF7E2FA0D
:104C000028BB8DF8005020686B460122417960680E
:104C100000783EE0FFE704208DF8000020686B4636
:104C20000122017960680078FDF7CCFA78B9A07CA0
:104C300090B9A07AC0070FD05FF060008DF8000037
:104C400020686B46012201796068007800E024E06A
:104C5000FDF7B8FA08BB01E04020EFE73220FCF78F
:104C600011F8607C18B101208DF8000001E08DF88A
:104C7000005020686B460122C17B60680078FDF718
:104C8000A1FA50B92068064B0122417960681033BF
:104C90000078FDF797FA002800D03046F8BD0000F4
:104CA0009000002038B5184C4FF0FF35A17A19B3A9
:104CB000022806D0042806D008280ED010281BD1C0
:104CC0000DE0002000E008208DF80000607A9DF8DB
:104CD0000010B0EBD10F04D005E01020F4E718204D
:104CE000F2E7002038BD20686B460122C179606878
:104CF0000078FDF767FA08B1284638BD9DF8000036
:104D0000C0086072EDE7000090000020F8B5354C57
:104D10000546A07CA84201D10020F8BD31484FF0E3
:104D2000FF366B46D0E900104FF001020979007898
:104D300035B3FDF791F970BB9DF800006B4620F08C
:104D400020008DF800002068012201796068007859
:104D5000FDF738FAF8B90320FBF794FF02208DF82D
:104D6000000094F8220078B382202BE020686B4684
:104D70000122017D60680078FDF724FA58B92EE021
:104D8000FDF76AF938B9A07AC0079DF8000003D092
:104D900040F0200002E00CE020F020008DF8000040
:104DA00020686B460122017960680078FDF70AFAF5
:104DB00008B13046F8BD0320FBF764FF94F82200E9
:104DC00000B180208DF8000094F823000028CDD099
:104DD0009DF8000040F030008DF80000C6E7A57493
:104DE0009AE700009000002038B51C4C94F824107D
:104DF00081421DD0002500B394F82500D0B10020D9
:104E000000F096F90020FFF781FFE08C00F0C6F873
:104E10008DF8005060686B46012200782321FDF771
:104E2000D1F9012084F8240000F082F9FFF78AFE0E
:104E3000002038BD4FF0FF3038BD002000F078F979
:104E4000207C8DF8000060686B46012200782321E9
:104E5000FDF7B8F984F82450E8E70000900000203E
:104E600038B5194C4FF0FF35A17A31B3FA2809D083
:104E7000B0F5FA7F08D0B0F57A7F0FD0B0F5FA6FB1
:104E80001BD10DE0002000E008208DF80000207A02
:104E90009DF80010B0EBD10F04D005E01020F4E72E
:104EA0001820F2E7002038BD20686B460122817986
:104EB00060680078FDF786F908B1284638BD9DF88E
:104EC0000000C0082072EDE79000002038B5174CB4
:104ED000054694F82300A84201D1002038BD0DB149
:104EE000302000E000208DF80000A07C28B19DF863
:104EF000000040F002008DF8000094F8220028B174
:104F00009DF8000040F080008DF8000020686B469E
:104F10000122017D60680078FDF754F910B14FF06F
:104F2000FF3038BD84F82350D7E700009000002000
:104F300038B5194C4FF0FF35A17A31B3BC2801D3F5
:104F4000012010E0622801D302200CE02A2801D3BE
:104F5000032008E0142801D3042004E00A2801D328
:104F6000052000E006208DF80000E07A9DF8001092
:104F7000884201D1002038BD20686B46012281782B
:104F800060680078FDF71EF908B1284638BD9DF825
:104F90000000E072EEE7000090000020F8B51E4D22
:104FA00004464FF0FF37A87A48B395F8240030BB89
:104FB000287D4FF47A7648B164B1282C03D8E0B24A
:104FC000FFF7F2FC26E00020FFF7EEFC042C05D2F0
:104FD000042406E00020FFF7E7FCF9E7B44200D91B
:104FE0003446B6FBF4F0401E8DF8000028686B468E
:104FF0000122417868680078FDF7E4F808B1384686
:10500000F8BD9DF80000401CB6FBF0F0E8814008B8
:10501000FFF78EFF0020F8BD90000020F8B5054690
:1050200010F0700F4FF0000601D0012004E015B120
:105030008DF8006002E040208DF80000244C6B46A3
:1050400001222068817C60680078FDF7BBF84FF092
:10505000FF3760BB9DF8000020F0400020738DF802
:105060000060680602D404208DF80000A80605D46C
:105070009DF8000040F002008DF80000E80605D41D
:105080009DF8000040F001008DF80000280705D4CD
:105090009DF8000040F038008DF8000020686B4655
:1050A0000122C17C60680078FDF78CF810B1A6720F
:1050B0003846F8BD25B1082D02D00020FFF706FFC5
:1050C000A57226753220FBF7DDFD0020F8BD00003B
:1050D00090000020F8B516000D464FF0FF371FD0A6
:1050E000104CA17AE1B1010A8DF80010C0B28DF820
:1050F0000100411960684289914211D82168007805
:105100006B46097E0222FDF75DF848B92068EAB2D5
:105110003346417D60680078FDF754F8002800D0E0
:105120003846F8BD90000020002800DA4042704761
:10513000F8B5144C0146224694F82460D2E90002E6
:1051400000235D1E56B179B1022111E0C17B1078B8
:105150006B460122FDF736F868B90EE0A67A56B123
:1051600011B1617C61B902E08DF80030EEE70121F8
:105170008DF80010EAE72846F8BD9DF8000060743D
:105180000020F8BD900000202DE9F04106460F46B2
:10519000FBF736FC041E0D4618BF0120284320F003
:1051A0000040C0F17F6000F1E040C00F0ED0301C25
:1051B00018BF0120384320F00040C0F17F6000F1AB
:1051C000E040C00F04BF0120FDF718FF204629462C
:1051D000BDE8F0812DE9F0471F4C91462046E26A78
:1051E000016E1C4F00261D4D806D4FF08348012A33
:1051F00016D0226B012A16D000203946A065FBF795
:105200008DFA00D2A7652846A16DFBF787FA00D278
:10521000A565606A012809D0A06A012806D007E0C8
:10522000FAF7D1FFE9E7FBF720F8E6E74FF0814610
:105230004146A06DFBF71FF8054631464846FBF78F
:105240001AF82946FBF711F8E065BDE8F047FBF7CF
:10525000EAB900000000C842000000200000C8C2F7
:105260002DE9F041304C4FF00008606A012855D01C
:10527000A06A012854D0C4F8508000BFD4E91C01B2
:105280000844FBF7A4F90546A064E06CFBF717FAA5
:10529000264E274B3246FBF711F9FBF723FA074658
:1052A0002846FBF70CFA3246224BFBF707F9054676
:1052B0000E463846FBF703FA2A463346FBF757F803
:1052C000FBF710FA05460146E064606DFAF77BFFD4
:1052D000216DFAF7CAFF18496065884202DC174958
:1052E000884200D96165A169606DFAF7C4FF06467E
:1052F00028466169FAF7BFFF3146FAF764FF1049A3
:105300006064104A0968914202D80F4A914201DD57
:10531000C4F85480BDE8F041FBF785B90B4800E0C4
:105320000B482065AAE70000000000209A9999998F
:105330009999E93F9999C93F00C0DA4500C0DAC59B
:10534000D8000020000020C200002042000034C32A
:105350000000B4420000000000000000010203044D
:1053600006070809000000000102030475191A0C61
:105370006A231B1C1F207274433B4138393A6B6C03
:10538000376F06246D6E70006800000476005401CB
:10539000F7FD000183000000000800000001001874
:1053A00032000500000020410000D242295C0F3E7F
:1053B0009A99993E3333733F295C0F3E0000700089
:1053C00000000024000000020003000000650054FB
:1053D000FFEF0000FA80000B12820001030C30C3C3
:1053E0000E8C8CE914D5400213710F8E3883F8832C
:1053F0003000F883258EF8833000F883FFFFFFFF2D
:105400000FFEA9D6240004001A8279A10000003CF6
:10541000FFFF00000010000038836FA2003E033041
:105420004000000002CAE3093E80000020000000A6
:10543000000000004000000060000000000C0000C0
:10544000000C186E000006920A16C0DFFFFF02561D
:10545000FD8CD377FFE1C496E0C5BEAA0000000032
:10546000FFFF0B2B000016570000035940000000FF
:1054700000001DFA00026C1D000000003FFFDFEB82
:10548000003EB3B6000D227800002F3C0000000063
:10549000001942B5000039A20000B365D90E9FC9BA
:1054A0001DCF4C3430000000500000003BB67AE8BD
:1054B0000064000000C800000000000010000000B0
:1054C0001000FA921000225E000D229F00010000E1
:1054D00000320000FF46000063D40000100000000E
:1054E00004D6000004CC000004CC000000001072C0
:1054F0000000004000000000000000000006000264
:10550000000500070000000000640000000000002B
:1055100000000005000500640020000000000000FD
:105520000000000000004000000003000000003206
:10553000F8980000FF650000830F0000FF9BFC004F
:10554000000000000000000000000000000000005B
:10555000000000000000000000000000000000004B
:1055600000000000000000000000100040000000EB
:10557000000000060000B26A000200000001FB8388
:105580000068000000D9FC007CF1FF8300000000EF
:1055900000650000006403E80064002800000025A6
:1055A0000000000016A00000000010000000100025
:1055B000002F0000000001F400001000002800008F
:1055C000FFFF4581FFFFFA720000000000000000AD
:1055D000004400050005BAC6004778A2000000019B
:1055E0000000000000000600000000140000254D2F
:1055F000002F706D000005AE000C02D0000000000E
:10560000000000000000000000000000001B00007F
:105610000000000000000000000000000064000026
:105620000008000000000000000000000000000072
:10563000000000000000000000000000000000006A
:10564000000000000000000000000000000000005A
:10565000000000000000000000000000000000004A
:10566000000000000000000000000000000000003A
:10567000000000000000000000000000001B00000F
:105680000000000000000000000E000E00000AC72D
:105690000004000000000032FFFFFF9C00000B2B05
:1056A000000000020000000100000064FFE50000AF
:1056B00000000000000000000000000000000001E9
:1056C0000000000000010000000000000001800058
:1056D0000001800000018000002426D300000000AB
:1056E00000000000000600100096003C00000000D2
:1056F0000000000000000000000000000C0A4E68DE
:10570000CDCF770950166759C619CE820000000028
:105710000000000000000000000000000000000089
:105720000000000017D78400030000000000000004
:1057300000000000C7938F9D1E1B1C190000000075
:105740000000000000000000000000000000000059
:105750000000000002031885000040000000000364
:1057600000000003000000000000000040000000F6
:105770000000000000000000000000000000000029
:105780000000000000000000000000000000000019
:105790000000000000000000000000000000000009
:1057A000677DDF7E72902E554CF6E6880000000083
:1057B000000000000000000000000000D8DCB4B8C9
:1057C000B0D8B9ABF3F8FAB3B7BB8E9EAEF132F5F1
:1057D0001BF1B4B8B08097F1A9DFDFDFAADFDFDF0C
:1057E000F2AAC5CDC7A90CC92C97F1A9892646668E
:1057F000B28999A92D557DB0B08AA896365676F112
:10580000BAA3B4B280C0B8A89711B28398BAA3F073
:10581000240844106418B2B9B49883F1A329557DC3
:10582000BAB5B1A38393F0002850F5B2B6AA83931A
:1058300028547CF1B9A3829361BAA2DADEDFDB815E
:105840009AB9AEF5606870F1DABAA2DFD9BAA2FAF5
:10585000B9A38292DB31BAA2D9BAA2F8DF85A4D06B
:10586000C1BBAD83C2C5C7B8A2DFDFDFBAA0DFDF2F
:10587000DFD8D8F1B8AAB38DB4980D355DB2B6BAF9
:10588000AF8C96198F9FA70E161EB49AB8AA872CB4
:10589000547CBAA4B08AB691325676B28494A4C825
:1058A00008CDD8B8B4B0F19982A82D557D98A80E2E
:1058B000161EA22C547C92A4F02C5078F184A89847
:1058C000C4CDFCD80DDBA8FC2DF3D9BAA6F8DABA02
:1058D000A6DED8BAB2B68696A6D0F3C841DAA6C874
:1058E000F8D8B0B4B882A892F52C548898F135D97C
:1058F000F418D8F1A2D0F8F9A884D9C7DFF8F88352
:10590000C5DADF69DF83C1D8F40114F1A8824EA89B
:1059100084F311D182F5D992289788F109F41C1CDF
:10592000D884A8F3C0F9D1D99782F129F40DD8F31E
:10593000F9F9D1D982F4C203D8DEDF1AD8F1A2FA7C
:10594000F9A88498D9C7DFF8F8F883C7DADF69DFE8
:10595000F883C3D8F40114F198A8822EA884F31117
:10596000D182F5D992509788F109F41CD884A8F314
:10597000C0F8F9D1D99782F149F40DD8F3F9F9D1EA
:10598000D982F4C403D8DEDFD8F1AD8898CCA80959
:10599000F9D98292A8F57CF1883ACF944A6E98DBC7
:1059A0006931DAADF2DEF9D88795A8F221D1DAA50E
:1059B000F9F417D9F1AE8ED0C0C3AE82C684C3A8A5
:1059C0008595C8A588F2C0F1F4010EF18E9EA8C697
:1059D0003E56F554F18872F40115F19845856EF53F
:1059E0008E9E0488F142985A8E9E068869F4011CA6
:1059F000F1981E1108D0F504F11E97020298362581
:105A0000DBF9D985A5F3C1DA85A5F3DFD88595A89B
:105A1000F309DAA5FAD88292A8F578F1881A849F5A
:105A200026889821DAF41DF3D8879F39D1AFD9DFC2
:105A3000DFFBF9F40CF3D8FAD0F8DAF9F9D0DFD9B2
:105A4000F9D8F40BD8F3879F39D1AFD9DFDFF41D34
:105A5000F3D8FAFCA869F9F9AFD0DADEFAD9F88FF1
:105A60009FA8F1CCF398DB45D9AFDFD0F8D8F18F00
:105A70009FA8CAF38809DAAF8FCBF8D8F2AD978D1B
:105A80000CD9A5DFF9BAA6F3FAF412F2D8950DD124
:105A9000D9BAA6F3FADAA5F2C1BAA6F3DFD8F1BAF9
:105AA000B2B68696A6D0CAF349DAA6CBF8D8B0B477
:105AB000B8D8AD84F2C0DFF18FCBC3A8B2B686965A
:105AC000C8C1CBC3F3B0B48898A821DB718D9D7198
:105AD000859521D9ADF2FAD88597A828D9F408D8A8
:105AE000F28D29DAF405D9F285A4C2F2D8A88D94F2
:105AF00001D1D9F411F2D88721D8F40AD8F28498C8
:105B0000A8C801D1D9F411D8F3A4C8BBAFD0F2DE34
:105B1000F8F8F8F8F8F8F8F8D8F1B8F6B5B9B08AA6
:105B200095A3DE3CA3D9F8D85CA3D9F8D87CA3D937
:105B3000F8D8F8F9D1A5D9DFDAFAD8B18530F7D994
:105B4000DED8F830ADDADED8F2B48C99A32D557DCD
:105B5000A083DFDFDFB591A0F629D9FBD8A0FC290F
:105B6000D9FAD8A0D051D9F8D8FC51D9F9D879D9D7
:105B7000FBD8A0D0FC79D9FAD8A1F9F9F9F9F9A0A4
:105B8000DADFDFDFD8A1F8F8F8F8F8ACDEF8ADDE40
:105B90008393AC2C547CF1A8DFDFDFF69D2CDAA0D8
:105BA000DFD9FADB2DF8D8A850DAA0D0DED9D0F8AA
:105BB000F8F8DB55F8D8A878DAA0D0DFD9D0FAF811
:105BC000F8F8F8DB7DF8D89CA88CF530DB38D9D014
:105BD000DEDFA0D0DEDFD8A848DB58D9DFD0DEA0DA
:105BE000DFD0DED8A868DB70D9DFDFA0DFDFD8F137
:105BF000A888902C547C98A8D05C38D1DAF2AE8C6E
:105C0000DFF9D8B087A8C1C1B188A8C6F9F9DA36DA
:105C1000D8A8F9DA36D8A8F9DA36D8A8F9DA36D811
:105C2000A8F9DA36D8F78D9DADF818DAF2AEDFD8DC
:105C3000F7ADFA30D9A4DEF9D8F2AEDEFAF983A7CF
:105C4000D9C3C5C7F1889BA77AADF7DEDFA4F88476
:105C50009408A797F300AEF29819A488C6A3948875
:105C6000F632DFF28393DB09D9F2AADFD8D8AEF897
:105C7000F9D1DAF3A4DEA7F1889B7AD8F38494AE45
:105C800019F9DAAAF1DFD8A881C0C3C5C7A39283E6
:105C9000F628ADDED9F8D8A350ADD9F8D8A378ADA1
:105CA000D9F8D8F8F9D1A1DADEC3C5C7D8A1819453
:105CB000F818F2B089ACC3C5C7F1D8B8B4B09786AC
:105CC000A8319B069907AB9728889BF00C201440BD
:105CD000B0B4B8F0A88A9A285078B79BA82951790F
:105CE000247059446938644831F1BBAB88002C54A6
:105CF0007CF0B38BB8A804285078F1B088B497260C
:105D0000A85998BBABB38B02264666B0B8F08A9C04
:105D1000A82951798B2951798A2470598B2058717F
:105D20008A4469388B3940688A6448318B304960CD
:105D300088F1AC002C547CF08CA804285078F188B1
:105D40009726A85998AC8C02264666F0899CA8290B
:105D50005179247059446938644831A98809205917
:105D600070AB11384069A8193148608CA83C415C7F
:105D7000207C00F187981986A86E767EA999882DD7
:105D8000557DD8B1B5B9A3DFDFDFAED0DFAAD0DE55
:105D9000F2ABF8F9D9B087C4AAF1DFDFBBAFDFDF20
:105DA000B9D8B1F1A3978E60DFB084F2C8F8F9D901
:105DB000DED89385F14AB183A308B5839A0810B75A
:105DC0009F10D8F1B0BAAEB08AC2B2B68E9EF1FBC7
:105DD000D9F41DD8F9D90CF1D8F8F8AD61D9AEFBDA
:105DE000D8F40CF1D8F8F8AD19D9AEFBDFD8F41619
:105DF000F1D8F8AD8D61D9F4F4ACF59C9C8DDF2B16
:105E0000BAB6AEFAF8F40BD8F1AED0F8AD51DAAEBE
:105E1000FAF8F1D8B9B1B6A3839C08B9B1839AB5A1
:105E2000AAC0FD3083B79F10B58B93F20202D1ABAD
:105E3000DADED8F1B080BAABC0C3B284C1C3D8B186
:105E4000B9F38BA391B609B4D9ABDEB0879CB9A3E3
:105E5000DDF1B38B8B8B8B8BB087A3A3A3A3B28B0A
:105E6000B69BF2A3A3A3A3A3A3A3A3A3A3F1B08769
:105E7000B59AA3F39BA3A3DCBAACDFB9A3A3A3A3F6
:105E8000A3A3A3A3A3A3A3A3A3A3A3A3D8D8D8BB2B
:105E9000B3B7F1AAF9DAFFD9809AAA28B48098A7F3
:105EA00020B79787A86688F07951F1902C870CA7C6
:105EB00081976293F071716085940129517990A561
:105EC000F1284C6C870C95188578A38390284C6C2E
:105ED000886CD8F3A28200F210A8921980A2F2D99D
:105EE00026D8F188A84DD948D896A83980D93CD869
:105EF0009580A839A68698D92CDA87A72CD8A889A6
:105F00009519A980D938D8A88939A980DA3CD8A8A8
:105F10002EA83990D90CD8A8953198D90CD8A809B1
:105F2000D9FFD801DAFFD89539A9DA26FFD890A889
:105F30000D8999A810809821DA2ED88999A83180E6
:105F4000DA2ED8A886963180DA2ED8A8873180DA62
:105F50002ED8A88292F34180F1D92ED8A882F319C5
:105F600080F1D92ED882ACF3C0A28022F1A62EA750
:105F70002EA92298A829DAACDEFFD8A2F22AF1A92C
:105F80002E8292A8F23180A696F1D900AC8C9C0C9E
:105F900030ACDED0DEFFD88C9CACD010ACDE809272
:105FA000A2F24C82A8F1CAF235F19688A6D900D89F
:105FB000F1FF000000000000555555555555C53FEF
:105FC0007D6FEB0312D6D4BF5544880E55C1C93F2F
:105FD0003B8F68B52882A4BF88B20175E0EF493FC6
:105FE00009F7FD0DE13D023F4B2D8A1C273A03C006
:105FF000C88A599CE52A004059018D1B6C06E6BFF2
:1060000082922EB1C5B8B33F4FBB610567ACDD3F8F
:10601000182D4454FB21E93F9BF681D20B73EF3FCF
:10602000182D4454FB21F93FE2652F227F2B7A3C47
:10603000075C143326A6813CBDCBF07A8807703C00
:10604000075C143326A6913CC4EB98999999C9BF73
:10605000711623FEC671BCBF6D9A74AFF2B0B3BFA8
:106060009AFDDE522DDEADBF2F6C6A2C44B4A2BF68
:106070000D5555555555D53FFF8300922449C23FD4
:106080006E204CC5CD45B73F513DD0A0660DB13F08
:10609000EB0D76244B7BA93F11DA22E33AAD903F1A
:1060A000000000000000000050726F6475637420EF
:1060B00049442072656164206173203020696E64F8
:1060C00069636174657320646576696365206973CB
:1060D0002065697468657220696E636F6D706174A4
:1060E00069626C65206F7220616E204D50553330AF
:1060F00035302E0A00000000186100080000002062
:1061000000010000DC2F00081862000800010020D8
:1061100030060000EC2F0008000000000000000026
:106120000000000000002F44333313C00000484338
:106130000000803F000000000000000000000000A0
:10614000000000000000000000000000000000004F
:10615000000000000000000000000000000000003F
:10616000000000000000000000000000000000002F
:1061700000000000000000000000204100000000BE
:10618000000000000000000000000000000000000F
:1061900000005A005A00000001000000100000003A
:1061A000000000000024F4006C530008885300082D
:1061B00000000000000000000000000000000000DF
:1061C00000000000000000000000000000000000CF
:1061D00094530008000000000000803F0000000011
:1061E00000000000000000000000000000000000AF
:1061F000000000000000000000000000000000009F
:1062000000000000FF000000FF000000010000008F
:08621000000000000000000086
:0400000508000131BD
:00000001FF
